{
  "address": "0xFd623280520C401533629D91c95B28576282263c",
  "abi": [
    {
      "inputs": [
        {
          "internalType": "address",
          "name": "_sweeper",
          "type": "address"
        }
      ],
      "stateMutability": "nonpayable",
      "type": "constructor"
    },
    {
      "inputs": [],
      "name": "FailedDeployment",
      "type": "error"
    },
    {
      "inputs": [
        {
          "internalType": "uint256",
          "name": "balance",
          "type": "uint256"
        },
        {
          "internalType": "uint256",
          "name": "needed",
          "type": "uint256"
        }
      ],
      "name": "InsufficientBalance",
      "type": "error"
    },
    {
      "anonymous": false,
      "inputs": [
        {
          "indexed": true,
          "internalType": "address",
          "name": "wallet",
          "type": "address"
        },
        {
          "indexed": true,
          "internalType": "bytes32",
          "name": "salt",
          "type": "bytes32"
        }
      ],
      "name": "WalletCreated",
      "type": "event"
    },
    {
      "inputs": [
        {
          "internalType": "bytes32",
          "name": "_salt",
          "type": "bytes32"
        },
        {
          "internalType": "address",
          "name": "_tokenAddress",
          "type": "address"
        },
        {
          "internalType": "address",
          "name": "_to",
          "type": "address"
        }
      ],
      "name": "deployAndSweep",
      "outputs": [],
      "stateMutability": "nonpayable",
      "type": "function"
    },
    {
      "inputs": [
        {
          "internalType": "bytes32",
          "name": "_salt",
          "type": "bytes32"
        }
      ],
      "name": "getDeterministicAddress",
      "outputs": [
        {
          "internalType": "address",
          "name": "",
          "type": "address"
        }
      ],
      "stateMutability": "view",
      "type": "function"
    },
    {
      "inputs": [],
      "name": "implementation",
      "outputs": [
        {
          "internalType": "address",
          "name": "",
          "type": "address"
        }
      ],
      "stateMutability": "view",
      "type": "function"
    },
    {
      "inputs": [],
      "name": "sweeper",
      "outputs": [
        {
          "internalType": "address",
          "name": "",
          "type": "address"
        }
      ],
      "stateMutability": "view",
      "type": "function"
    }
  ],
  "transactionHash": "0x74d9c0416c7946e69f31e94a2c664100558e659d1e2ab005f40da9070067a967",
  "args": [
    "0x93f222120dB78772730b62BFB12225995e0b5DEe"
  ],
  "numDeployments": 1,
  "solcInputHash": "76b99092df9f81e91bc7d04427e1e3dc",
  "bytecode": "0x60c060405234801561001057600080fd5b50604051610c87380380610c8783398101604081905261002f91610082565b600060405161003d90610075565b604051809103906000f080158015610059573d6000803e3d6000fd5b506001600160a01b039081166080529190911660a052506100b2565b6107248061056383390190565b60006020828403121561009457600080fd5b81516001600160a01b03811681146100ab57600080fd5b9392505050565b60805160a0516104736100f06000396000818160ae0152818161016d0152610219015260008181606b0152818160ff01526101dd01526104736000f3fe608060405234801561001057600080fd5b506004361061004c5760003560e01c806338f58152146100515780635c60da1b146100665780639189a59e146100a9578063a58dcc95146100d0575b600080fd5b61006461005f3660046103e8565b610162565b005b61008d7f000000000000000000000000000000000000000000000000000000000000000081565b6040516001600160a01b03909116815260200160405180910390f35b61008d7f000000000000000000000000000000000000000000000000000000000000000081565b61008d6100de366004610424565b6040513060388201526f5af43d82803e903d91602b57fd5bf3ff60248201527f00000000000000000000000000000000000000000000000000000000000000006014820152733d602d80600a3d3981f3363d3d373d3d3d363d73815260588101919091526037600c820120607882015260556043909101206001600160a01b031690565b336001600160a01b037f000000000000000000000000000000000000000000000000000000000000000016146101d65760405162461bcd60e51b81526020600482015260146024820152732330b1ba37b93c9d102737ba1039bbb2b2b832b960611b60448201526064015b60405180910390fd5b60006102027f000000000000000000000000000000000000000000000000000000000000000085610320565b60405163189acdbd60e31b81526001600160a01b037f0000000000000000000000000000000000000000000000000000000000000000811660048301529192509082169063c4d66de890602401600060405180830381600087803b15801561026957600080fd5b505af115801561027d573d6000803e3d6000fd5b505060405163b8dc491b60e01b81526001600160a01b03868116600483015285811660248301528416925063b8dc491b9150604401600060405180830381600087803b1580156102cc57600080fd5b505af11580156102e0573d6000803e3d6000fd5b50506040518692506001600160a01b03841691507fc71ce9687e4bf252667e23b2b1cb9433c5357a590c7f9ff6db754257a0be60c190600090a350505050565b600061032e83836000610335565b9392505050565b6000814710156103615760405163cf47918160e01b8152476004820152602481018390526044016101cd565b763d602d80600a3d3981f3363d3d373d3d3d363d730000008460601b60e81c176000526e5af43d82803e903d91602b57fd5bf38460781b17602052826037600984f590506001600160a01b03811661032e5760405163b06ebf3d60e01b815260040160405180910390fd5b80356001600160a01b03811681146103e357600080fd5b919050565b6000806000606084860312156103fd57600080fd5b8335925061040d602085016103cc565b915061041b604085016103cc565b90509250925092565b60006020828403121561043657600080fd5b503591905056fea2646970667358221220117b9ddaa2d4b48061e41d1e8aa3c84a66db1637a4143102d5eb3da5e7c4d9a164736f6c63430008140033608060405234801561001057600080fd5b50338061003757604051631e4fbdf760e01b81526000600482015260240160405180910390fd5b6100408161004e565b5061004961009e565b610150565b600080546001600160a01b038381166001600160a01b0319831681178455604051919092169283917f8be0079c531659141344cd1fd0a4f28419497f9722a3daafe3b4186f6b6457e09190a35050565b7ff0c57e16840df040f15088dc2f81fe391c3923bec73e23a9662efc9c229c6a00805468010000000000000000900460ff16156100ee5760405163f92ee8a960e01b815260040160405180910390fd5b80546001600160401b039081161461014d5780546001600160401b0319166001600160401b0390811782556040519081527fc7f505b2f371ae2175ee4913f4499e1f2633a7b5936321eed1cdaeb6115181d29060200160405180910390a15b50565b6105c58061015f6000396000f3fe6080604052600436106100595760003560e01c80631163b2b014610065578063715018a6146100875780638da5cb5b1461009c578063b8dc491b146100c8578063c4d66de8146100e8578063f2fde38b1461010857600080fd5b3661006057005b600080fd5b34801561007157600080fd5b506100856100803660046104f7565b610128565b005b34801561009357600080fd5b5061008561014e565b3480156100a857600080fd5b50600054604080516001600160a01b039092168252519081900360200190f35b3480156100d457600080fd5b506100856100e336600461051b565b610162565b3480156100f457600080fd5b506100856101033660046104f7565b61025a565b34801561011457600080fd5b506100856101233660046104f7565b61036a565b6101306103ad565b47801561014a5761014a6001600160a01b038316826103da565b5050565b6101566103ad565b610160600061046a565b565b61016a6103ad565b6040516370a0823160e01b815230600482015282906000906001600160a01b038316906370a0823190602401602060405180830381865afa1580156101b3573d6000803e3d6000fd5b505050506040513d601f19601f820116820180604052508101906101d79190610554565b905080156102545760405163a9059cbb60e01b81526001600160a01b0384811660048301526024820183905283169063a9059cbb906044016020604051808303816000875af115801561022e573d6000803e3d6000fd5b505050506040513d601f19601f82011682018060405250810190610252919061056d565b505b50505050565b7ff0c57e16840df040f15088dc2f81fe391c3923bec73e23a9662efc9c229c6a008054600160401b810460ff16159067ffffffffffffffff166000811580156102a05750825b905060008267ffffffffffffffff1660011480156102bd5750303b155b9050811580156102cb575080155b156102e95760405163f92ee8a960e01b815260040160405180910390fd5b845467ffffffffffffffff19166001178555831561031357845460ff60401b1916600160401b1785555b61031c8661046a565b831561036257845460ff60401b19168555604051600181527fc7f505b2f371ae2175ee4913f4499e1f2633a7b5936321eed1cdaeb6115181d29060200160405180910390a15b505050505050565b6103726103ad565b6001600160a01b0381166103a157604051631e4fbdf760e01b8152600060048201526024015b60405180910390fd5b6103aa8161046a565b50565b6000546001600160a01b031633146101605760405163118cdaa760e01b8152336004820152602401610398565b804710156104045760405163cf47918160e01b815247600482015260248101829052604401610398565b600080836001600160a01b03168360405160006040518083038185875af1925050503d8060008114610452576040519150601f19603f3d011682016040523d82523d6000602084013e610457565b606091505b50915091508161025457610254816104ba565b600080546001600160a01b038381166001600160a01b0319831681178455604051919092169283917f8be0079c531659141344cd1fd0a4f28419497f9722a3daafe3b4186f6b6457e09190a35050565b8051156104c957805160208201fd5b60405163d6bda27560e01b815260040160405180910390fd5b6001600160a01b03811681146103aa57600080fd5b60006020828403121561050957600080fd5b8135610514816104e2565b9392505050565b6000806040838503121561052e57600080fd5b8235610539816104e2565b91506020830135610549816104e2565b809150509250929050565b60006020828403121561056657600080fd5b5051919050565b60006020828403121561057f57600080fd5b8151801515811461051457600080fdfea264697066735822122067c5f6440b5ba86a201ed265c18433cbe68356f4286ce9d834be1ce6636e9fac64736f6c63430008140033",
  "devdoc": {
    "errors": {
      "FailedDeployment()": [
        {
          "details": "The deployment failed."
        }
      ],
      "InsufficientBalance(uint256,uint256)": [
        {
          "details": "The ETH balance of the account is not enough to perform the operation."
        }
      ]
    },
    "kind": "dev",
    "methods": {},
    "title": "WalletFactory",
    "version": 1
  },
  "userdoc": {
    "kind": "user",
    "methods": {
      "deployAndSweep(bytes32,address,address)": {
        "notice": "This is the \"magic\" function. It deploys the wallet and sweeps its funds in ONE transaction."
      },
      "getDeterministicAddress(bytes32)": {
        "notice": "Calculates the *future* address for a user's salt. Your backend calls this (for free) to get a deposit address."
      }
    },
    "notice": "Deploys and manages user wallets. You deploy this contract ONCE.",
    "version": 1
  },
  "storageLayout": {
    "storage": [],
    "types": null
  }
}